{
  "_format": "hh-sol-artifact-1",
  "contractName": "NFTMarket",
  "sourceName": "contracts/NFTMarket.sol",
  "abi": [
    {
      "inputs": [
        {
          "internalType": "contract IERC20",
          "name": "_paymentToken",
          "type": "address"
        },
        {
          "internalType": "uint256",
          "name": "_listingFee",
          "type": "uint256"
        }
      ],
      "stateMutability": "nonpayable",
      "type": "constructor"
    },
    {
      "inputs": [
        {
          "internalType": "address",
          "name": "owner",
          "type": "address"
        }
      ],
      "name": "OwnableInvalidOwner",
      "type": "error"
    },
    {
      "inputs": [
        {
          "internalType": "address",
          "name": "account",
          "type": "address"
        }
      ],
      "name": "OwnableUnauthorizedAccount",
      "type": "error"
    },
    {
      "anonymous": false,
      "inputs": [
        {
          "indexed": false,
          "internalType": "uint256",
          "name": "listingId",
          "type": "uint256"
        },
        {
          "indexed": false,
          "internalType": "address",
          "name": "seller",
          "type": "address"
        }
      ],
      "name": "NFTBuy",
      "type": "event"
    },
    {
      "anonymous": false,
      "inputs": [
        {
          "indexed": false,
          "internalType": "uint256",
          "name": "listingId",
          "type": "uint256"
        },
        {
          "indexed": true,
          "internalType": "address",
          "name": "seller",
          "type": "address"
        },
        {
          "indexed": true,
          "internalType": "address",
          "name": "nftContract",
          "type": "address"
        },
        {
          "indexed": false,
          "internalType": "uint256",
          "name": "tokenId",
          "type": "uint256"
        },
        {
          "indexed": false,
          "internalType": "uint256",
          "name": "price",
          "type": "uint256"
        }
      ],
      "name": "NFTlisted",
      "type": "event"
    },
    {
      "anonymous": false,
      "inputs": [
        {
          "indexed": true,
          "internalType": "address",
          "name": "previousOwner",
          "type": "address"
        },
        {
          "indexed": true,
          "internalType": "address",
          "name": "newOwner",
          "type": "address"
        }
      ],
      "name": "OwnershipTransferred",
      "type": "event"
    },
    {
      "inputs": [
        {
          "internalType": "address",
          "name": "nftContract",
          "type": "address"
        },
        {
          "internalType": "uint256",
          "name": "tokenId",
          "type": "uint256"
        },
        {
          "internalType": "uint256",
          "name": "price",
          "type": "uint256"
        }
      ],
      "name": "ListingNft",
      "outputs": [],
      "stateMutability": "nonpayable",
      "type": "function"
    },
    {
      "inputs": [
        {
          "internalType": "uint256",
          "name": "listingId",
          "type": "uint256"
        }
      ],
      "name": "buyListingNft",
      "outputs": [],
      "stateMutability": "nonpayable",
      "type": "function"
    },
    {
      "inputs": [],
      "name": "listingFee",
      "outputs": [
        {
          "internalType": "uint256",
          "name": "",
          "type": "uint256"
        }
      ],
      "stateMutability": "view",
      "type": "function"
    },
    {
      "inputs": [
        {
          "internalType": "uint256",
          "name": "",
          "type": "uint256"
        }
      ],
      "name": "listings",
      "outputs": [
        {
          "internalType": "address",
          "name": "seller",
          "type": "address"
        },
        {
          "internalType": "address",
          "name": "nftContract",
          "type": "address"
        },
        {
          "internalType": "uint256",
          "name": "tokenId",
          "type": "uint256"
        },
        {
          "internalType": "uint256",
          "name": "price",
          "type": "uint256"
        }
      ],
      "stateMutability": "view",
      "type": "function"
    },
    {
      "inputs": [
        {
          "internalType": "address",
          "name": "",
          "type": "address"
        },
        {
          "internalType": "address",
          "name": "",
          "type": "address"
        },
        {
          "internalType": "uint256",
          "name": "",
          "type": "uint256"
        },
        {
          "internalType": "bytes",
          "name": "",
          "type": "bytes"
        }
      ],
      "name": "onERC721Received",
      "outputs": [
        {
          "internalType": "bytes4",
          "name": "",
          "type": "bytes4"
        }
      ],
      "stateMutability": "pure",
      "type": "function"
    },
    {
      "inputs": [],
      "name": "owner",
      "outputs": [
        {
          "internalType": "address",
          "name": "",
          "type": "address"
        }
      ],
      "stateMutability": "view",
      "type": "function"
    },
    {
      "inputs": [],
      "name": "paymentToken",
      "outputs": [
        {
          "internalType": "contract IERC20",
          "name": "",
          "type": "address"
        }
      ],
      "stateMutability": "view",
      "type": "function"
    },
    {
      "inputs": [],
      "name": "renounceOwnership",
      "outputs": [],
      "stateMutability": "nonpayable",
      "type": "function"
    },
    {
      "inputs": [],
      "name": "totalListings",
      "outputs": [
        {
          "internalType": "uint256",
          "name": "",
          "type": "uint256"
        }
      ],
      "stateMutability": "view",
      "type": "function"
    },
    {
      "inputs": [
        {
          "internalType": "address",
          "name": "newOwner",
          "type": "address"
        }
      ],
      "name": "transferOwnership",
      "outputs": [],
      "stateMutability": "nonpayable",
      "type": "function"
    }
  ],
  "bytecode": "0x60806040523480156200001157600080fd5b50604051620013fd380380620013fd83398181016040528101906200003791906200029d565b33600073ffffffffffffffffffffffffffffffffffffffff168173ffffffffffffffffffffffffffffffffffffffff1603620000ad5760006040517f1e4fbdf7000000000000000000000000000000000000000000000000000000008152600401620000a49190620002f5565b60405180910390fd5b620000be816200012060201b60201c565b5081600160006101000a81548173ffffffffffffffffffffffffffffffffffffffff021916908373ffffffffffffffffffffffffffffffffffffffff1602179055508060028190555062000118336200012060201b60201c565b505062000312565b60008060009054906101000a900473ffffffffffffffffffffffffffffffffffffffff169050816000806101000a81548173ffffffffffffffffffffffffffffffffffffffff021916908373ffffffffffffffffffffffffffffffffffffffff1602179055508173ffffffffffffffffffffffffffffffffffffffff168173ffffffffffffffffffffffffffffffffffffffff167f8be0079c531659141344cd1fd0a4f28419497f9722a3daafe3b4186f6b6457e060405160405180910390a35050565b600080fd5b600073ffffffffffffffffffffffffffffffffffffffff82169050919050565b60006200021682620001e9565b9050919050565b60006200022a8262000209565b9050919050565b6200023c816200021d565b81146200024857600080fd5b50565b6000815190506200025c8162000231565b92915050565b6000819050919050565b620002778162000262565b81146200028357600080fd5b50565b60008151905062000297816200026c565b92915050565b60008060408385031215620002b757620002b6620001e4565b5b6000620002c7858286016200024b565b9250506020620002da8582860162000286565b9150509250929050565b620002ef8162000209565b82525050565b60006020820190506200030c6000830184620002e4565b92915050565b6110db80620003226000396000f3fe608060405234801561001057600080fd5b506004361061009e5760003560e01c80638da5cb5b116100665780638da5cb5b14610135578063c78b616c14610153578063de74e57b14610171578063e97bf9eb146101a4578063f2fde38b146101c05761009e565b8063150b7a02146100a3578063262934d1146100d35780633013ce29146100ef5780636a1b7ecc1461010d578063715018a61461012b575b600080fd5b6100bd60048036038101906100b89190610b3f565b6101dc565b6040516100ca9190610c02565b60405180910390f35b6100ed60048036038101906100e89190610c1d565b6101f1565b005b6100f7610432565b6040516101049190610ccf565b60405180910390f35b610115610458565b6040516101229190610cf9565b60405180910390f35b61013361045e565b005b61013d610472565b60405161014a9190610d23565b60405180910390f35b61015b61049b565b6040516101689190610cf9565b60405180910390f35b61018b60048036038101906101869190610d3e565b6104a1565b60405161019b9493929190610d6b565b60405180910390f35b6101be60048036038101906101b99190610d3e565b610511565b005b6101da60048036038101906101d59190610db0565b610798565b005b600063150b7a0260e01b905095945050505050565b60008111610234576040517f08c379a000000000000000000000000000000000000000000000000000000000815260040161022b90610e3a565b60405180910390fd5b6003600081548092919061024790610e89565b919050555060405180608001604052803373ffffffffffffffffffffffffffffffffffffffff1681526020018473ffffffffffffffffffffffffffffffffffffffff1681526020018381526020018281525060046000600354815260200190815260200160002060008201518160000160006101000a81548173ffffffffffffffffffffffffffffffffffffffff021916908373ffffffffffffffffffffffffffffffffffffffff16021790555060208201518160010160006101000a81548173ffffffffffffffffffffffffffffffffffffffff021916908373ffffffffffffffffffffffffffffffffffffffff16021790555060408201518160020155606082015181600301559050508273ffffffffffffffffffffffffffffffffffffffff166323b872dd3330856040518463ffffffff1660e01b815260040161039093929190610ed1565b600060405180830381600087803b1580156103aa57600080fd5b505af11580156103be573d6000803e3d6000fd5b505050508273ffffffffffffffffffffffffffffffffffffffff163373ffffffffffffffffffffffffffffffffffffffff167fb7f5d47032776cfa4f9480308a151937d3c3979237df8e288633b92c7590ba1d600354858560405161042593929190610f08565b60405180910390a3505050565b600160009054906101000a900473ffffffffffffffffffffffffffffffffffffffff1681565b60025481565b61046661081e565b61047060006108a5565b565b60008060009054906101000a900473ffffffffffffffffffffffffffffffffffffffff16905090565b60035481565b60046020528060005260406000206000915090508060000160009054906101000a900473ffffffffffffffffffffffffffffffffffffffff16908060010160009054906101000a900473ffffffffffffffffffffffffffffffffffffffff16908060020154908060030154905084565b6000600460008381526020019081526020016000206040518060800160405290816000820160009054906101000a900473ffffffffffffffffffffffffffffffffffffffff1673ffffffffffffffffffffffffffffffffffffffff1673ffffffffffffffffffffffffffffffffffffffff1681526020016001820160009054906101000a900473ffffffffffffffffffffffffffffffffffffffff1673ffffffffffffffffffffffffffffffffffffffff1673ffffffffffffffffffffffffffffffffffffffff168152602001600282015481526020016003820154815250509050600081606001511161063a576040517f08c379a000000000000000000000000000000000000000000000000000000000815260040161063190610f8b565b60405180910390fd5b610670600160009054906101000a900473ffffffffffffffffffffffffffffffffffffffff163383600001518460600151610969565b806020015173ffffffffffffffffffffffffffffffffffffffff166342842e0e303384604001516040518463ffffffff1660e01b81526004016106b593929190610ed1565b600060405180830381600087803b1580156106cf57600080fd5b505af11580156106e3573d6000803e3d6000fd5b5050505060046000838152602001908152602001600020600080820160006101000a81549073ffffffffffffffffffffffffffffffffffffffff02191690556001820160006101000a81549073ffffffffffffffffffffffffffffffffffffffff02191690556002820160009055600382016000905550507fc22cf1032a78c5439b0951cb51e72a351ce72bfad88563a022c696b8415dfc0e823360405161078c929190610fab565b60405180910390a15050565b6107a061081e565b600073ffffffffffffffffffffffffffffffffffffffff168173ffffffffffffffffffffffffffffffffffffffff16036108125760006040517f1e4fbdf70000000000000000000000000000000000000000000000000000000081526004016108099190610d23565b60405180910390fd5b61081b816108a5565b50565b610826610a34565b73ffffffffffffffffffffffffffffffffffffffff16610844610472565b73ffffffffffffffffffffffffffffffffffffffff16146108a357610867610a34565b6040517f118cdaa700000000000000000000000000000000000000000000000000000000815260040161089a9190610d23565b60405180910390fd5b565b60008060009054906101000a900473ffffffffffffffffffffffffffffffffffffffff169050816000806101000a81548173ffffffffffffffffffffffffffffffffffffffff021916908373ffffffffffffffffffffffffffffffffffffffff1602179055508173ffffffffffffffffffffffffffffffffffffffff168173ffffffffffffffffffffffffffffffffffffffff167f8be0079c531659141344cd1fd0a4f28419497f9722a3daafe3b4186f6b6457e060405160405180910390a35050565b60008473ffffffffffffffffffffffffffffffffffffffff166323b872dd8585856040518463ffffffff1660e01b81526004016109a893929190610ed1565b6020604051808303816000875af11580156109c7573d6000803e3d6000fd5b505050506040513d601f19601f820116820180604052508101906109eb919061100c565b905080610a2d576040517f08c379a0000000000000000000000000000000000000000000000000000000008152600401610a2490611085565b60405180910390fd5b5050505050565b600033905090565b600080fd5b600080fd5b600073ffffffffffffffffffffffffffffffffffffffff82169050919050565b6000610a7182610a46565b9050919050565b610a8181610a66565b8114610a8c57600080fd5b50565b600081359050610a9e81610a78565b92915050565b6000819050919050565b610ab781610aa4565b8114610ac257600080fd5b50565b600081359050610ad481610aae565b92915050565b600080fd5b600080fd5b600080fd5b60008083601f840112610aff57610afe610ada565b5b8235905067ffffffffffffffff811115610b1c57610b1b610adf565b5b602083019150836001820283011115610b3857610b37610ae4565b5b9250929050565b600080600080600060808688031215610b5b57610b5a610a3c565b5b6000610b6988828901610a8f565b9550506020610b7a88828901610a8f565b9450506040610b8b88828901610ac5565b935050606086013567ffffffffffffffff811115610bac57610bab610a41565b5b610bb888828901610ae9565b92509250509295509295909350565b60007fffffffff0000000000000000000000000000000000000000000000000000000082169050919050565b610bfc81610bc7565b82525050565b6000602082019050610c176000830184610bf3565b92915050565b600080600060608486031215610c3657610c35610a3c565b5b6000610c4486828701610a8f565b9350506020610c5586828701610ac5565b9250506040610c6686828701610ac5565b9150509250925092565b6000819050919050565b6000610c95610c90610c8b84610a46565b610c70565b610a46565b9050919050565b6000610ca782610c7a565b9050919050565b6000610cb982610c9c565b9050919050565b610cc981610cae565b82525050565b6000602082019050610ce46000830184610cc0565b92915050565b610cf381610aa4565b82525050565b6000602082019050610d0e6000830184610cea565b92915050565b610d1d81610a66565b82525050565b6000602082019050610d386000830184610d14565b92915050565b600060208284031215610d5457610d53610a3c565b5b6000610d6284828501610ac5565b91505092915050565b6000608082019050610d806000830187610d14565b610d8d6020830186610d14565b610d9a6040830185610cea565b610da76060830184610cea565b95945050505050565b600060208284031215610dc657610dc5610a3c565b5b6000610dd484828501610a8f565b91505092915050565b600082825260208201905092915050565b7f5072696365206d757374206772656174686572207468616e207a65726f000000600082015250565b6000610e24601d83610ddd565b9150610e2f82610dee565b602082019050919050565b60006020820190508181036000830152610e5381610e17565b9050919050565b7f4e487b7100000000000000000000000000000000000000000000000000000000600052601160045260246000fd5b6000610e9482610aa4565b91507fffffffffffffffffffffffffffffffffffffffffffffffffffffffffffffffff8203610ec657610ec5610e5a565b5b600182019050919050565b6000606082019050610ee66000830186610d14565b610ef36020830185610d14565b610f006040830184610cea565b949350505050565b6000606082019050610f1d6000830186610cea565b610f2a6020830185610cea565b610f376040830184610cea565b949350505050565b7f6c697374696e67206973206572726f7221000000000000000000000000000000600082015250565b6000610f75601183610ddd565b9150610f8082610f3f565b602082019050919050565b60006020820190508181036000830152610fa481610f68565b9050919050565b6000604082019050610fc06000830185610cea565b610fcd6020830184610d14565b9392505050565b60008115159050919050565b610fe981610fd4565b8114610ff457600080fd5b50565b60008151905061100681610fe0565b92915050565b60006020828403121561102257611021610a3c565b5b600061103084828501610ff7565b91505092915050565b7f427579206661696c656421000000000000000000000000000000000000000000600082015250565b600061106f600b83610ddd565b915061107a82611039565b602082019050919050565b6000602082019050818103600083015261109e81611062565b905091905056fea264697066735822122054119e894208d3640c846bceb44b414c7cb32deb29a8e2332047793a9ca9cecd64736f6c63430008180033",
  "linkReferences": {},
  "deployedLinkReferences": {}
}